:100000000C9444010C9461010C9461010C94610105
:100010000C9461010C9461010C9461010C946101D8
:100020000C9461010C9461010C9461010C946101C8
:100030000C9461010C9461010C946F070C946101A4
:100040000C9461010C9461010C9461010C946101A8
:100050000C9461010C9461010C9461010C94610198
:100060000C9461010C946101000000000000002F5D
:1000700000000007000700147F147F14242A7F2A41
:1000800012C4C81026463649552250000503000008
:10009000001C2241000041221C0014083E081408E4
:1000A000083E0808000050300010101010100060CA
:1000B00060000020100804023E5149453E00427F86
:1000C000400042615149462141454B311814127F8D
:1000D0001027454545393C4A494930017109050316
:1000E0003649494936064949291E0036360000007E
:1000F0005636000008142241001414141414004150
:100100002214080201510906324959513E7E11114B
:10011000117E7F494949363E414141227F4141227A
:100120001C7F494949417F090909013E4149497AF2
:100130007F0808087F00417F41002040413F017F48
:10014000081422417F404040407F020C027F7F0420
:1001500008107F3E4141413E7F090909063E415159
:10016000215E7F09192946464949493101017F012C
:10017000013F4040403F1F2040201F3F4038403F4C
:100180006314081463070870080761514945430068
:100190007F414100552A552A550041417F00040204
:1001A0000102044040404040000102040020545439
:1001B00054787F48444438384444442038444448C0
:1001C0007F3854545418087E0901020C5252523E92
:1001D0007F0804047800447D40002040443D007FB7
:1001E0001028440000417F40007C041804787C08FB
:1001F00004047838444444387C1414140808141453
:10020000187C7C080404084854545420043F44409B
:10021000203C4040207C1C2040201C3C4030403C86
:1002200044281028440C5050503C4464544C443EE4
:100230000053484F4F54494E472100536B6F6B3A60
:1002400000496E746572773A004C69637A62613A6C
:1002500000300030002F003000300030003000301F
:10026000003A0030003A0030003E0020003E0020FE
:100270000020004D002000520020005300200041CB
:10028000007320003000300011241FBECFEFD8E0F3
:10029000DEBFCDBF11E0A0E0B1E0E8EFFFE002C0BB
:1002A00005900D92A830B107D9F723E0A8E0B1E09E
:1002B00001C01D92A731B207E1F70E94EB030C9435
:1002C000FA070C9400002A98613011F4299A01C0B1
:1002D00029988EBD0DB407FEFDCF2A9A0895CF93BD
:1002E000C82F60E081E20E94630160E08C2F80688B
:1002F0000E94630160E080E20E946301CF91089553
:1003000088EF91E0EEE0F1E0DF019C011D922150C9
:100310003040E1F710920B0110920A0187EF91E053
:10032000909309018093080108958F30E0F46730BD
:10033000E0F490E001979C01220F331F820F931F7E
:10034000880F991F70E06150710944E5469F900144
:10035000479F300D1124820F931F90930D018093BE
:100360000C0180E0089581E0089581E008950F93E5
:100370001F93CF93DF9340910C0150910D01209179
:100380000A0130910B014217530724F450930B01DB
:1003900040930A0190EE960F9C3508F495C06CE5E9
:1003A00093C08491880F8D933196A217B307C9F734
:1003B0004B5F5F4F50930D0140930C015FC0823043
:1003C00009F05CC0CA018455910920910A0130915D
:1003D0000B01821793070CF08DC090930B01809353
:1003E0000A0188C09491990F892F8270282F220FBB
:1003F000820F282F220F892F8470382F330F830FFD
:10040000880F880F822B392F3870319F302D11249F
:10041000382B92959F70292F2270822F880F280FDA
:10042000822F880F292F2170022F000F200F282BD9
:10043000892F8470082F000F800F880F880F822B60
:10044000292F2870219F202D1124982F922B38833B
:1004500039839C9311969C9311973196229612960C
:10046000A617B70709F0BECFCA010B9668EF71E077
:100470000E94A20790930D0180930C0180910C01C2
:1004800090910D0120910801309109012817390739
:1004900024F49093090180930801FC01E25FFE4F70
:1004A0001082873F21E0920731F410920D011092E3
:1004B0000C0182E038C0019690930D0180930C01ED
:1004C00080E031C081E02FC0813009F078CF70E04A
:1004D00060527109FB01EE0FFF1FEE0FFF1FE60FC9
:1004E000F71FE859FF4FDA01A25FBE4F9A012D5E58
:1004F0003E4F57CF992334F370E060527109FB01EE
:10050000EE0FFF1FEE0FFF1FE60FF71FE859FF4F1B
:10051000EA01C654DF4FDA01A25FBE4FBA01685E3E
:100520007E4F18E15FCFDF91CF911F910F9108951A
:100530000F931F93CF93DF93FB016081662389F0B4
:100540008F01D82FC0E08D2F0E94B701813041F07C
:10055000CF5FF801EC0FF11D60816111F4CF01C094
:1005600061E0862FDF91CF911F910F9108951F9326
:10057000CF93DF93182FEB01FB016491662361F0A9
:10058000812F0E94B701813049F02196FE016491CC
:100590006111F6CF80E003C080E001C081E0DF910F
:1005A000CF911F9108951F93CF93DF93CDB7DEB7FF
:1005B00028970FB6F894DEBF0FBECDBF182FCB0122
:1005C0004AE0BE016F5F7F4F0E94C507BE016F5FAB
:1005D0007F4F812F0E94980228960FB6F894DEBFB5
:1005E0000FBECDBFDF91CF911F910895EF92FF9283
:1005F0000F931F93CF93DF9380910A0190910B018A
:1006000099232CF410920B0110920A0109C0883F23
:10061000914034F087EF91E090930B0180930A01B1
:10062000809108019091090199232CF410920901FD
:100630001092080109C0883F914034F087EF91E0A3
:100640009093090180930801C0910A01D0910B0198
:10065000CE0164E570E00E94A207162F60E080687A
:100660000E94630160E0812F80640E946301E0903A
:100670000801F0900901EC16FD066CF08E01025F96
:100680001E4F61E0F80181918F010E946301219664
:10069000EC16FD06B4F787EF91E090930B01809381
:1006A0000A011092090110920801DF91CF911F9168
:1006B0000F91FF90EF9008952C9A84B18E6384B9C6
:1006C0002C982C9A80E58CBD2A9A60E081E20E94E9
:1006D000630160E088EC0E94630160E086E00E94B4
:1006E000630160E083E10E94630160E080E20E94B8
:1006F000630160E08CE00E94630188EF91E09093D9
:100700000B0180930A0110920901109208010E94C6
:1007100080010E94F6020895009769F020E030E021
:10072000EFE9FFE03197F1F700C000002F5F3F4F86
:1007300082179307A9F7089587B18C6087B988B1AC
:10074000837F88B98AB1807F8AB98BB18F668BB974
:100750008AB180668AB984B5826084BD85B58460BB
:1007600085BD89EF87BDEEE6F0E080818260808301
:10077000089561E082E00E94950169E472E081E001
:100780000E94B70262E082E00E94950161E472E09B
:1007900081E00E94B70263E082E00E9495016BE372
:1007A00072E081E00E94B70264E082E00E9495015D
:1007B00061E372E081E00E94B702609108036F5F1D
:1007C00081E00E9495016FE272E081E00E94B70231
:1007D0000E94F60208950E949C030E945C0380E43C
:1007E0000E946F010E9480010E94F6020E94B903DC
:1007F0007894CEE0D3E000E11EE00F2EFCE3FF2E64
:10080000F02D80910803833008F03FC061E08AE05A
:100810000E9495018091000190910101843691051B
:1008200028F466E872E081E00E94B702809100013E
:10083000909101010A9728F464E872E081E00E9437
:10084000B702609100017091010181E00E94D30222
:1008500062E08AE00E9495016091040170910501B7
:1008600081E00E94D30261E872E081E00E94B70259
:1008700063E08AE00E94950160910201709103019A
:1008800081E00E94D3020E94F60280910803833027
:1008900009F0D6C080910603209104013091050132
:1008A00090E0B9010E948E07892B09F0C9C04091E0
:1008B0000A0350910B0380910001909101014817A8
:1008C000590708F0BDC02D333105A0F0429A2FEF33
:1008D00080E792E0215080409040E1F700C00000A6
:1008E00042982FEF81EE94E0215080409040E1F754
:1008F00000C0000066E081E00E9495016FE772E0B1
:1009000081E00E94B7020E94F602429A86B184708A
:10091000809307032FEF80E792E0215080409040C2
:10092000E1F700C0000066E081E00E9495016DE7FC
:1009300072E081E00E94B7020E94F60266E082E067
:100940000E9495016BE772E081E00E94B7020E946D
:10095000F602439A86B18870809312038091060153
:10096000909107010E948C0366E082E00E9495014D
:1009700069E772E081E00E94B7020E94F60266E039
:1009800083E00E94950167E772E081E00E94B70270
:100990000E94F6024398429886B1847080930703C0
:1009A00086B188708093120366E083E00E9495010F
:1009B00065E772E081E00E94B7020E94F6022FEF25
:1009C00083EC99E0215080409040E1F700C00000A6
:1009D00066E084E00E94950163E772E081E00E9496
:1009E000B7020E94F6025E9889B180748093130367
:1009F00080910201909103010E948C035E9A89B15B
:100A000080748093130366E084E00E94950161E79F
:100A100072E081E00E94B7020E94F60280910A0310
:100A200090910B03019690930B0380930A032FEF91
:100A300083ED90E3215080409040E1F700C000003A
:100A4000489933C02FEF87EE93E0215080409040CB
:100A5000E1F700C00000489BFECF609108036623C9
:100A6000D9F06F5F81E00E9495016FE672E081E04E
:100A70000E94B7020E94F602609108038FEF860F72
:100A80008093080381E00E9495016DE672E081E0A9
:100A90000E94B7020E94F6022FEF87EE93E02150EA
:100AA00080409040E1F700C00000499953C02FEF0B
:100AB00087EE93E0215080409040E1F700C00000B5
:100AC000499BFECF8091080381111CC080910001D9
:100AD000909101018D33910530F04E979093010173
:100AE000809300012EC08531910530F00A979093D4
:100AF00001018093000125C001979093010180932B
:100B000000011FC0813069F48091040190910501BA
:100B100083309105B0F00197909305018093040113
:100B200010C0823071F480910201909103018D32E6
:100B300021E0920730F0845691099093030180934D
:100B400002018FEF97EE23E0815090402040E1F7C3
:100B500000C000004B994BC04B9BFECF8091080317
:100B6000811120C08091000190910101893C23E016
:100B70009207A0F58C33910530F04E9690930101C9
:100B8000809300012BC08431910530F00A96909338
:100B900001018093000122C001969093010180938E
:100BA00000011CC0813051F4809104019091050135
:100BB0000196909305018093040110C0823071F476
:100BC0008091020190910301843823E0920730F470
:100BD0008C599F4F90930301809302018FEF97EE02
:100BE00023E0815090402040E1F700C000004A9986
:100BF0003AC08FEF97EE23E0815090402040E1F71C
:100C000000C000004A9BFECF60910803633010F5DE
:100C10006F5F81E00E9495016BE672E081E00E94C7
:100C2000B7020E94F6026091080381E0860F80936C
:100C300008036E5F81E00E94950169E672E081E041
:100C40000E94B7020E94F60280910803833011F4DB
:100C5000109206038FEF97EE23E0815090402040E2
:100C6000E1F700C0000080910903882309F4C9CD91
:100C70002091000130910101609104017091050102
:100C8000A90141505109469FC001479F900D569FB1
:100C9000900D11249093160380931503409108033F
:100CA0004330F9F4E0910A03F0910B03E217F307E4
:100CB000C0F4409106036E9F90016F9F300D7E9FA0
:100CC000300D1124821B930B9C01260F371F842F9C
:100CD00090E00E948E07281B390B30931603209357
:100CE00015038091150390911603B8010E948E0799
:100CF000AC01698390930D0380930C039C01A9E8D8
:100D0000B8E80E94B60796958795929582958F7060
:100D100089279F7089278A83F89E9001F99E300D5C
:100D20001124421B530B4B8365E082E00E94950126
:100D300089818A3028F467E672E081E00E94B70278
:100D4000698170E081E00E94D30265E672E081E093
:100D50000E94B7028A818A3028F463E672E081E05B
:100D60000E94B7026A8170E081E00E94D30261E6CE
:100D700072E081E00E94B7028B818A3028F46FE52F
:100D800072E081E00E94B7026B8170E081E00E9416
:100D9000D30280910803833099F520910A033091A2
:100DA0000B0380910001909101012817390740F54C
:100DB00064E08CE00E94950180910603209104017B
:100DC0003091050190E0B9010E948E07281B390B74
:100DD0002A30310528F46DE572E081E00E94B70207
:100DE00080910603209104013091050190E0B90142
:100DF0000E948E07B901681B790B81E00E94D30223
:100E000065E08CE00E9495018091060390E060917E
:100E10000401709105010E948E070A9728F46BE582
:100E200072E081E00E94B7028091060390E0609139
:100E30000401709105010E948E07BC0181E00E94AF
:100E4000D30266E088E00E94950180910A039091A8
:100E50000B038436910528F469E572E081E00E9475
:100E6000B70280910A0390910B030A9728F467E573
:100E700072E081E00E94B70260910A0370910B0357
:100E800081E00E94D30266E08BE00E94950165E557
:100E900072E081E00E94B70280910001909101010F
:100EA0008436910528F463E572E081E00E94B70280
:100EB00080910001909101010A9728F461E572E0A8
:100EC00081E00E94B702609100017091010181E010
:100ED0000E94D3020E94F6021092090392CC1F9244
:100EE0000F920FB60F9211248F93809114038F5F8E
:100EF00080931403809114038A3F50F010921403DE
:100F0000809106038F5F8093060381E0809309033D
:100F10008F910F900FBE0F901F901895AA1BBB1BAF
:100F200051E107C0AA1FBB1FA617B70710F0A61BE9
:100F3000B70B881F991F5A95A9F780959095BC010A
:100F4000CD01089597FB072E16F4009407D077FD86
:100F500009D00E948E0707FC05D03EF4909581953C
:100F60009F4F0895709561957F4F0895A29FB0019E
:100F7000B39FC001A39F700D811D1124911DB29FCD
:100F8000700D811D1124911D0895BB274A3031F445
:100F9000992322F4BDE2909581959F4F0C94D1073F
:100FA000BB27FB015527AA27880F991FAA1FA41743
:100FB00010F0A41B83955051B9F7A05DAA3308F037
:100FC000A95DA193009779F7B111B1931192CB016B
:100FD0000C94EA07DC01FC01672F71917723E1F79C
:100FE000329704C07C916D9370836291AE17BF07F6
:080FF000C8F30895F894FFCF47
:080FF8003C002C0178006400AC
:00000001FF
