S013000043616D5261696C5F3332382E737265637C
S11300000C9440010C945D010C945D010C945D0111
S11300100C945D010C945D010C945D010C945D01E4
S11300200C945D010C945D010C945D010C945D01D4
S11300300C945D010C945D010C9446070C945D01D5
S11300400C945D010C945D010C945D010C945D01B4
S11300500C945D010C945D010C945D010C945D01A4
S11300600C945D010C945D01300030000000000030
S11300700000002F00000007000700147F147F1405
S1130080242A7F2A12C4C810264636495522500015
S113009005030000001C2241000041221C0014083A
S11300A03E081408083E08080000503000101010E4
S11300B01010006060000020100804023E51494501
S11300C03E00427F400042615149462141454B3147
S11300D01814127F1027454545393C4A49493001D7
S11300E0710905033649494936064949291E00362E
S11300F0360000005636000008142241001414147F
S113010014140041221408020151090632495951BC
S11301103E7E1111117E7F494949363E41414122BB
S11301207F4141221C7F494949417F090909013E18
S11301304149497A7F0808087F00417F41002040F7
S1130140413F017F081422417F404040407F020C20
S1130150027F7F0408107F3E4141413E7F09090927
S1130160063E4151215E7F091929464649494931D4
S113017001017F01013F4040403F1F2040201F3FBD
S11301804038403F6314081463070870080761513E
S1130190494543007F414100552A552A55004141B4
S11301A07F00040201020440404040400001020478
S11301B00020545454787F484444383844444420FC
S11301C0384444487F3854545418087E0901020CBA
S11301D05252523E7F0804047800447D400020407F
S11301E0443D007F1028440000417F40007C0418F7
S11301F004787C0804047838444444387C14141487
S113020008081414187C7C08040408485454542026
S1130210043F4440203C4040207C1C2040201C3CA7
S11302204030403C44281028440C5050503C446416
S1130230544C443E0053484F4F54494E47210053B9
S11302406B6F6B5B6D735D3A00496E746572775BBF
S1130250735D3A004C69637A62613A002F003000A2
S11302603A0030003A0030003E0020003E002000FA
S113027020004D00200052002000530020004100C7
S113028011241FBECFEFD8E0DEBFCDBF11E0A0E048
S1130290B1E0E6EAFFE002C005900D92A830B10794
S11302A0D9F723E0A8E0B1E001C01D92A731B2075D
S11302B0E1F70E9404040C94D1070C9400002A98DE
S11302C0613011F4299A01C029988EBD0DB407FE3E
S11302D0FDCF2A9A0895CF93C82F60E081E20E944F
S11302E05F0160E08C2F80680E945F0160E080E223
S11302F00E945F01CF91089588EF91E0EEE0F1E074
S1130300DF019C011D9221503040E1F710920B0156
S113031010920A0187EF91E09093090180930801FC
S113032008958F30E0F46730E0F490E001979C0189
S1130330220F331F820F931F880F991F70E06150A3
S1130340710944E5469F9001479F300D1124820FA7
S1130350931F90930D0180930C0180E0089581E038
S1130360089581E008950F931F93CF93DF934091F5
S11303700C0150910D0120910A0130910B0142179B
S1130380530724F450930B0140930A0190EE960F07
S11303909C3508F495C06CE593C08491880F8D93C7
S11303A03196A217B307C9F74B5F5F4F50930D0106
S11303B040930C015FC0823009F05CC0CA018455CF
S11303C0910920910A0130910B01821793070CF0D7
S11303D08DC090930B0180930A0188C09491990F6A
S11303E0892F8270282F220F820F282F220F892F06
S11303F08470382F330F830F880F880F822B392F87
S11304003870319F302D1124382B92959F70292FED
S11304102270822F880F280F822F880F292F217096
S1130420022F000F200F282B892F8470082F000F14
S1130430800F880F880F822B292F2870219F202D51
S11304401124982F922B388339839C9311969C9373
S11304501197319622961296A617B70709F0BECFC8
S1130460CA010B9668EF71E00E94790790930D0121
S113047080930C0180910C0190910D012091080151
S1130480309109012817390724F4909309018093C6
S11304900801FC01E25FFE4F1082873F21E09207D2
S11304A031F410920D0110920C0182E038C00196D3
S11304B090930D0180930C0180E031C081E02FC046
S11304C0813009F078CF70E060527109FB01EE0FC2
S11304D0FF1FEE0FFF1FE60FF71FE459FF4FDA016E
S11304E0A25FBE4F9A012D5E3E4F57CF992334F33E
S11304F070E060527109FB01EE0FFF1FEE0FFF1F4A
S1130500E60FF71FE459FF4FEA01C654DF4FDA0143
S1130510A25FBE4FBA01685E7E4F18E15FCFDF91E4
S1130520CF911F910F9108950F931F93CF93DF9352
S1130530FB016081662389F08F01D82FC0E08D2FE5
S11305400E94B301813041F0CF5FF801EC0FF11D3F
S113055060816111F4CF01C061E0862FDF91CF91FA
S11305601F910F9108951F93CF93DF93182FEB01E1
S1130570FB016491662361F0812F0E94B3018130F5
S113058049F02196FE0164916111F6CF80E003C029
S113059080E001C081E0DF91CF911F9108951F9306
S11305A0CF93DF93CDB7DEB728970FB6F894DEBFAD
S11305B00FBECDBF182FCB014AE0BE016F5F7F4F46
S11305C00E949C07BE016F5F7F4F812F0E9494029F
S11305D028960FB6F894DEBF0FBECDBFDF91CF9142
S11305E01F9108951F93CF93DF93182FEB016A3067
S11305F0710528F46AE670E081E00E94B302C43613
S1130600D10528F468E670E081E00E94B302BE01DF
S1130610812F0E94CF02DF91CF911F910895EF9215
S1130620FF920F931F93CF93DF9380910A019091D0
S11306300B0199232CF410920B0110920A0109C0AA
S1130640883F914034F087EF91E090930B018093C1
S11306500A01809108019091090199232CF41092C8
S113066009011092080109C0883F914034F087EFD6
S113067091E09093090180930801C0910A01D091FF
S11306800B01CE0164E570E00E947907162F60E04B
S113069080680E945F0160E0812F80640E945F0196
S11306A0E0900801F0900901EC16FD066CF08E0153
S11306B0025F1E4F61E0F80181918F010E945F018A
S11306C02196EC16FD06B4F787EF91E090930B01A9
S11306D080930A011092090110920801DF91CF91D1
S11306E01F910F91FF90EF9008952C9A84B18E631F
S11306F084B92C982C9A80E58CBD2A9A60E081E21A
S11307000E945F0160E088EC0E945F0160E086E087
S11307100E945F0160E083E10E945F0160E080E28B
S11307200E945F0160E08CE00E945F0188EF91E02D
S113073090930B0180930A01109209011092080111
S11307400E947C010E940F030895009769F020E045
S113075030E0EFE9FFE03197F1F700C000002F5FD0
S11307603F4F82179307A9F7089587B18C6087B923
S113077088B1837F88B98AB1807F8AB98BB18F664B
S11307808BB98AB180668AB984B5826084BD85B527
S1130790846085BD89EF87BDEEE6F0E080818260EC
S11307A08083089561E082E00E94910164E572E033
S11307B081E00E94B30262E082E00E94910169E458
S11307C072E081E00E94B30263E082E00E94910142
S11307D06FE372E081E00E94B30264E082E00E9471
S11307E0910165E372E081E00E94B3026091080325
S11307F06F5F81E00E94910163E372E081E00E94F7
S1130800B3020E940F0308950E94B5030E9475036A
S113081080E40E946B010E947C010E940F030E94ED
S1130820D2037894CEE0D3E000E11EE00F2EFCE387
S1130830FF2EF02D80910803833018F561E08CE0E1
S11308400E949101609100017091010181E00E9478
S1130850F20262E08CE00E949101609104017091C7
S1130860050181E00E94F20263E08CE00E949101A4
S1130870609102017091030181E00E94CF020E9405
S11308800F0380910803833009F0D6C080910603DA
S1130890209104013091050190E0B9010E9465079F
S11308A0892B09F0C9C040910A0350910B03809130
S11308B00001909101014817590708F0BDC02D337C
S11308C03105A0F0429A2FEF80E792E0215080405A
S11308D09040E1F700C0000042982FEF81EE94E0D1
S11308E0215080409040E1F700C0000066E081E0C4
S11308F00E9491016EE772E081E00E94B3020E94BF
S11309000F03429A86B18470809307032FEF80E728
S113091092E0215080409040E1F700C0000066E082
S113092081E00E9491016CE772E081E00E94B302D1
S11309300E940F0366E082E00E9491016AE772E080
S113094081E00E94B3020E940F03439A86B188702B
S11309508093120380910601909107010E94A503E0
S113096066E082E00E94910168E772E081E00E9403
S1130970B3020E940F0366E083E00E94910166E7E0
S113098072E081E00E94B3020E940F0343984298F0
S113099086B184708093070386B1887080931203B4
S11309A066E083E00E94910164E772E081E00E94C6
S11309B0B3020E940F032FEF83EC99E02150804093
S11309C09040E1F700C0000066E084E00E949101DD
S11309D062E772E081E00E94B3020E940F035E9816
S11309E089B1807480931303809102019091030173
S11309F00E94A5035E9A89B180748093130366E014
S1130A0084E00E94910160E772E081E00E94B302F9
S1130A100E940F0380910A0390910B030196909317
S1130A200B0380930A032FEF83ED90E32150804062
S1130A309040E1F700C00000489933C02FEF87EEE3
S1130A4093E0215080409040E1F700C00000489BB3
S1130A50FECF609108036623D9F06F5F81E00E94A6
S1130A6091016EE672E081E00E94B3020E940F03DE
S1130A70609108038FEF860F8093080381E00E9442
S1130A8091016CE672E081E00E94B3020E940F03C0
S1130A902FEF87EE93E0215080409040E1F700C0B3
S1130AA00000499969C02FEF87EE93E02150804000
S1130AB09040E1F700C00000499BFECF80910803FD
S1130AC0811120C080910001909101018230910533
S1130AD008F449C08D33910530F04E97909301018D
S1130AE08093000140C08531910530F00A979093BE
S1130AF001018093000137C0019790930101809315
S1130B00000131C08130F9F4809104019091050114
S1130B108330910540F18D33910530F00A9790931D
S1130B200501809304011FC08531910530F00597BC
S1130B30909305018093040116C0019790930501D9
S1130B408093040110C0823071F48091020190916D
S1130B5003018D3221E0920730F08456910990937D
S1130B600301809302018FEF97EE23E081509040C0
S1130B702040E1F700C000004B9962C04B9BFECFC0
S1130B8080910803811121C080910001909101019D
S1130B90893C23E0920708F04AC08C33910530F079
S1130BA04E96909301018093000141C084319105D8
S1130BB030F00A96909301018093000138C00196A9
S1130BC0909301018093000132C0813001F580913E
S1130BD00401909105018D3D23E0920740F58C338B
S1130BE0910530F00A9690930501809304011FC08B
S1130BF08431910530F005969093050180930401AA
S1130C0016C00196909305018093040110C08230B0
S1130C1071F48091020190910301843823E09207DA
S1130C2030F48C599F4F90930301809302018FEF0E
S1130C3097EE23E0815090402040E1F700C000008F
S1130C404A993AC08FEF97EE23E0815090402040BC
S1130C50E1F700C000004A9BFECF609108036330B7
S1130C6010F56F5F81E00E9491016AE672E081E015
S1130C700E94B3020E940F036091080381E0860F73
S1130C80809308036E5F81E00E94910168E672E040
S1130C9081E00E94B3020E940F0380910803833015
S1130CA011F4109206038FEF97EE23E081509040E9
S1130CB02040E1F700C0000080910903882309F473
S1130CC0B9CD20910001309101016091040170912E
S1130CD00501A90141505109469FC001479F900D4C
S1130CE0569F900D11249093160380931503409101
S1130CF008034330F9F4E0910A03F0910B03E2177F
S1130D00F307C0F4409106036E9F90016F9F300D6E
S1130D107E9F300D1124821B930B9C01260F371FDD
S1130D20842F90E00E946507281B390B309316032B
S1130D30209315038091150390911603B8010E9426
S1130D406507AC01698390930D0380930C039C01A8
S1130D50A9E8B8E80E948D079695879592958295A3
S1130D608F7089279F7089278A83F89E9001F99E46
S1130D70300D1124421B530B4B8365E082E00E942B
S1130D80910189818A3028F466E672E081E00E944C
S1130D90B302698170E081E00E94CF0264E672E0F0
S1130DA081E00E94B3028A818A3028F462E672E00C
S1130DB081E00E94B3026A8170E081E00E94CF0268
S1130DC060E672E081E00E94B3028B818A3028F4ED
S1130DD06EE572E081E00E94B3026B8170E081E015
S1130DE00E94CF02809108038330F9F420910A0312
S1130DF030910B038091000190910101281739076C
S1130E00A0F464E08CE00E9491018091060320919B
S1130E1004013091050190E0B9010E946507B90110
S1130E20681B790B81E00E94F20265E08CE00E946D
S1130E3091018091060390E0609104017091050195
S1130E400E946507BC0181E00E94F20266E088E02E
S1130E500E94910160910A0370910B0381E00E944A
S1130E60F20266E08BE00E9491016CE572E081E0A1
S1130E700E94B302609100017091010181E00E941F
S1130E80F2020E940F0310920903D4CC1F920F9216
S1130E900FB60F9211248F93809114038F5F809368
S1130EA01403809114038A3F50F01092140380912C
S1130EB006038F5F8093060381E0809309038F917B
S1130EC00F900FBE0F901F901895AA1BBB1B51E1EA
S1130ED007C0AA1FBB1FA617B70710F0A61BB70BA6
S1130EE0881F991F5A95A9F780959095BC01CD014B
S1130EF0089597FB072E16F4009407D077FD09D0C8
S1130F000E94650707FC05D03EF4909581959F4F9C
S1130F100895709561957F4F0895A29FB001B39F86
S1130F20C001A39F700D811D1124911DB29F700DEE
S1130F30811D1124911D0895BB274A3031F4992352
S1130F4022F4BDE2909581959F4F0C94A807BB278E
S1130F50FB015527AA27880F991FAA1FA41710F071
S1130F60A41B83955051B9F7A05DAA3308F0A95D7D
S1130F70A193009779F7B111B1931192CB010C941D
S1130F80C107DC01FC01672F71917723E1F73297E8
S1130F9004C07C916D9370836291AE17BF07C8F350
S1090FA00895F894FFCF50
S10B0FA63C002C01140064005E
S9030000FC
